{
  "contractName": "Calculator",
  "abi": [
    {
      "anonymous": false,
      "inputs": [
        {
          "indexed": false,
          "internalType": "int256",
          "name": "result",
          "type": "int256"
        }
      ],
      "name": "Calculation",
      "type": "event"
    },
    {
      "constant": false,
      "inputs": [
        {
          "internalType": "int256",
          "name": "a",
          "type": "int256"
        },
        {
          "internalType": "int256",
          "name": "b",
          "type": "int256"
        }
      ],
      "name": "add",
      "outputs": [],
      "payable": false,
      "stateMutability": "nonpayable",
      "type": "function"
    },
    {
      "constant": false,
      "inputs": [
        {
          "internalType": "int256",
          "name": "a",
          "type": "int256"
        },
        {
          "internalType": "int256",
          "name": "b",
          "type": "int256"
        }
      ],
      "name": "subtract",
      "outputs": [],
      "payable": false,
      "stateMutability": "nonpayable",
      "type": "function"
    },
    {
      "constant": false,
      "inputs": [
        {
          "internalType": "int256",
          "name": "a",
          "type": "int256"
        },
        {
          "internalType": "int256",
          "name": "b",
          "type": "int256"
        }
      ],
      "name": "multiply",
      "outputs": [],
      "payable": false,
      "stateMutability": "nonpayable",
      "type": "function"
    },
    {
      "constant": false,
      "inputs": [
        {
          "internalType": "int256",
          "name": "a",
          "type": "int256"
        },
        {
          "internalType": "int256",
          "name": "b",
          "type": "int256"
        }
      ],
      "name": "divide",
      "outputs": [],
      "payable": false,
      "stateMutability": "nonpayable",
      "type": "function"
    },
    {
      "constant": true,
      "inputs": [],
      "name": "getResult",
      "outputs": [
        {
          "internalType": "int256",
          "name": "",
          "type": "int256"
        }
      ],
      "payable": false,
      "stateMutability": "view",
      "type": "function"
    }
  ],
  "bytecode": "0x608060405234801561001057600080fd5b5061032e806100206000396000f3fe608060405234801561001057600080fd5b50600436106100575760003560e01c80633c4308a81461005c578063a5f3c23b14610094578063b93ea812146100cc578063de29278914610104578063f598423614610122575b600080fd5b6100926004803603604081101561007257600080fd5b81019080803590602001909291908035906020019092919050505061015a565b005b6100ca600480360360408110156100aa57600080fd5b8101908080359060200190929190803590602001909291905050506101a0565b005b610102600480360360408110156100e257600080fd5b8101908080359060200190929190803590602001909291905050506101e6565b005b61010c61022c565b6040518082815260200191505060405180910390f35b6101586004803603604081101561013857600080fd5b810190808035906020019092919080359060200190929190505050610235565b005b8082026000819055507f34c7cfb42705decee349da1454da46bf5a51bf2af88a01138ceade88699a74f16000546040518082815260200191505060405180910390a15050565b8082016000819055507f34c7cfb42705decee349da1454da46bf5a51bf2af88a01138ceade88699a74f16000546040518082815260200191505060405180910390a15050565b8082036000819055507f34c7cfb42705decee349da1454da46bf5a51bf2af88a01138ceade88699a74f16000546040518082815260200191505060405180910390a15050565b60008054905090565b60008114156102ac576040517f08c379a00000000000000000000000000000000000000000000000000000000081526004018080602001828103825260108152602001807f4469766973696f6e206279207a65726f0000000000000000000000000000000081525060200191505060405180910390fd5b8082816102b557fe5b056000819055507f34c7cfb42705decee349da1454da46bf5a51bf2af88a01138ceade88699a74f16000546040518082815260200191505060405180910390a1505056fea265627a7a72315820f382fdc5e1fe41662344aa0f7d41a6030cba98c8da5d4e5d67cbc4357543fae364736f6c63430005100032",
  "source": "// SPDX-License-Identifier: MIT\npragma solidity ^0.5.16;\n\ncontract Calculator {\n    int256 private result;\n\n    event Calculation(int256 result);\n\n    function add(int256 a, int256 b) public {\n        result = a + b;\n        emit Calculation(result);\n    }\n\n    function subtract(int256 a, int256 b) public {\n        result = a - b;\n        emit Calculation(result);\n    }\n\n    function multiply(int256 a, int256 b) public {\n        result = a * b;\n        emit Calculation(result);\n    }\n\n    function divide(int256 a, int256 b) public {\n        require(b != 0, \"Division by zero\");\n        result = a / b;\n        emit Calculation(result);\n    }\n\n    function getResult() public view returns (int256) {\n        return result;\n    }\n}\n",
  "sourcePath": "C:\\Users\\sharm\\Downloads\\final2\\Aryan_Dapp\\contracts\\MyContract.sol",
  "compiler": {
    "name": "solc",
    "version": "0.5.16+commit.9c3226ce.Emscripten.clang"
  },
  "schemaVersion": "3.4.16",
  "updatedAt": "2024-06-11T02:19:35.536Z",
  "networkType": "ethereum",
  "devdoc": {
    "methods": {}
  },
  "userdoc": {
    "methods": {}
  }
}